:020000040800F2
:10000000000002203D0A0008FD0500086902000802
:10001000FF050008010600080306000800000000B4
:1000200000000000000000000000000005060008BD
:100030000706000800000000090600085109000832
:100040000B0600080D0600080F0600081106000840
:100050001306000815060008170600081906000810
:100060001B0600081D0600081F06000821060008E0
:1000700023060008250600082706000829060008B0
:100080002B0600082D0600082F0600083106000880
:100090003306000835060008370600083906000850
:1000A0003B0600083D0600083F0600084106000820
:1000B00043060008450600084706000849060008F0
:1000C0004B0600084D0600084F06000851060008C0
:1000D0005306000855060008570600085906000890
:1000E0005B0600085D0600085F0600086106000860
:1000F0006306000865060008670600086906000830
:100100006B0600086D0600086F06000871060008FF
:1001100073060008750600087706000879060008CF
:100120007B0600087D0600087F060008810600089F
:10013000830600088506000887060008890600086F
:100140008B0600088D0600088F060008910600083F
:10015000930600089506000897060008990600080F
:100160009B0600089D0600089F060008A1060008DF
:10017000A3060008A5060008A70600080000000066
:08018000A9060008AB06000807
:1001880082B08DF807009DF8070001460091072806
:100198005AD80099DFE801F004152637585858480E
:1001A80041F21801C4F20201086840F400500860E6
:1001B800086840F480400860086840F4004008601F
:1001C80042E041F21801C4F20201086840F0005010
:1001D8000860086840F480400860086840F40040FF
:1001E800086031E041F21801C4F20201086840F4E5
:1001F80000500860086840F080400860086840F4D3
:100208000040086020E041F21801C4F202010868C9
:1002180040F400500860086840F4804008600868AE
:1002280040F0004008600FE041F21801C4F20201FA
:10023800086840F000500860086840F08040086096
:0C024800086840F00040086002B07047F9
:10025400034C206804348047FBE700F017F8FEE7FE
:04026400880A0008FC
:1002680008490A68002AFED41EF0040F0CBFEFF3F9
:100278000880EFF3098042F000420A608169023188
:08028800816170472CED00E0DC
:1002900080B586B00020029005908DF813008DF88F
:1002A00012008DF811008DF810008DF80F0000F08D
:1002B00057FB00F059F800F080F849F24000C0F216
:1002C000020000F055F90298FFF75EFF00F0A4FA73
:1002D0009DF813000146019103281ED80199DFE81B
:1002E00001F0020619150720FFF74EFF15E0012067
:1002F000FFF74AFF40F20C01C1F20001082210464C
:1003000000F0E9F800208DF8130006E00220FFF766
:100310003BFF02E00320FFF737FF40F20600C1F287
:100320000000007818B101208DF8130012E040F2AF
:100330000400C1F20000007818B103208DF813000A
:1003400008E040F20200C1F20000007810B1022083
:060350008DF81300BAE76E
:100356004EF68851CEF20001086840F4700008603D
:020366007047DE
:1003680043F63001C4F20201086840F0100008604A
:1003780041F20C01C4F20201086840F480100860E0
:10038800086840F480000860086840F080700860E1
:1003980041F20001C4F20201086840F08060086080
:1003A800086840F080500860086840F080400860A5
:0203B80070478C
:1003BA0043F64001C4F20201086840F400100860E4
:1003CA0043F63001C4F20201086840F002000860F6
:1003DA0040F20041C4F20201086840F400300860AB
:1003EA00086840F40020086040F20441C4F20201A7
:1003FA00086840F44070086040F20C41C4F20201FF
:10040A00086840F4A020086040F22441C4F20201C6
:10041A00086840F004000860086840F0400008607E
:10042A0045F20041C4F200010020086045F204428E
:10043A00C4F20002106840F02A00106045F21C4223
:10044A00C4F20002106840F0D2001060106820F474
:10045A000040106045F22042C4F20002106840F0E9
:10046A002B00106045F20C42C4F20002106820F41E
:10047A0000401060086840F001000860086840F415
:06048A008060086070476D
:1004900045F20041C4F20001086840F48070086031
:1004A00045F21440C4F200000068C00700B9F7E745
:0204B000704793
:1004B20045F20041C4F20001086840F4007008608F
:0204C200704781
:1004C40045F20041C4F20001086840F4806008600D
:0204D40070476F
:1004D60080B584B08DF80F000291ADF80620FFF7C5
:1004E600EEFF45F21840C4F20000006880070028BD
:1004F60000D5F6E7FFF7C9FFA020002100F065F957
:100506009DF80F0045F21041C4F20001086045F263
:100516001440C4F2000000680006002800D4F6E784
:100526000020ADF80400BDF80400BDF806108842AE
:1005360017DA0298BDF80410405C45F21041C4F287
:100546000001086045F21440C4F20000006800068D
:10055600002800D4F6E7BDF804000130ADF8040029
:0A056600E1E7FFF7A3FF04B080BD3A
:1005700080B582B0009000980138B0F1807F02D33E
:100580000120019018E0009801384EF21401CEF2DB
:10059000000108604FF0FF300F2100F010F84EF21C
:1005A0001801CEF20001002008604EF21002CEF2D7
:0E05B0000002072111600190019802B080BD89
:1005BE0082B08DF8070000919DF90700002809D43C
:1005CE00009800019DF907104EF20042CEF2000293
:1005DE0088540AE0009800019DF8071001F00F0101
:0E05EE004EF61452CEF20002885402B070474E
:0205FC00FEE718
:0205FE00FEE716
:02060000FEE713
:02060200FEE711
:02060400FEE70F
:02060600FEE70D
:02060800FEE70B
:02060A00FEE709
:02060C00FEE707
:02060E00FEE705
:02061000FEE703
:02061200FEE701
:02061400FEE7FF
:02061600FEE7FD
:02061800FEE7FB
:02061A00FEE7F9
:02061C00FEE7F7
:02061E00FEE7F5
:02062000FEE7F3
:02062200FEE7F1
:02062400FEE7EF
:02062600FEE7ED
:02062800FEE7EB
:02062A00FEE7E9
:02062C00FEE7E7
:02062E00FEE7E5
:02063000FEE7E3
:02063200FEE7E1
:02063400FEE7DF
:02063600FEE7DD
:02063800FEE7DB
:02063A00FEE7D9
:02063C00FEE7D7
:02063E00FEE7D5
:02064000FEE7D3
:02064200FEE7D1
:02064400FEE7CF
:02064600FEE7CD
:02064800FEE7CB
:02064A00FEE7C9
:02064C00FEE7C7
:02064E00FEE7C5
:02065000FEE7C3
:02065200FEE7C1
:02065400FEE7BF
:02065600FEE7BD
:02065800FEE7BB
:02065A00FEE7B9
:02065C00FEE7B7
:02065E00FEE7B5
:02066000FEE7B3
:02066200FEE7B1
:02066400FEE7AF
:02066600FEE7AD
:02066800FEE7AB
:02066A00FEE7A9
:02066C00FEE7A7
:02066E00FEE7A5
:02067000FEE7A3
:02067200FEE7A1
:02067400FEE79F
:02067600FEE79D
:02067800FEE79B
:02067A00FEE799
:02067C00FEE797
:02067E00FEE795
:02068000FEE793
:02068200FEE791
:02068400FEE78F
:02068600FEE78D
:02068800FEE78B
:02068A00FEE789
:02068C00FEE787
:02068E00FEE785
:02069000FEE783
:02069200FEE781
:02069400FEE77F
:02069600FEE77D
:02069800FEE77B
:02069A00FEE779
:02069C00FEE777
:02069E00FEE775
:0206A000FEE773
:0206A200FEE771
:0206A400FEE76F
:0206A600FEE76D
:0206A800FEE76B
:0206AA00FEE769
:1006AC0086B00021059104910220039002910190E3
:1006BC0043F60800C4F20200006800F00C0005903C
:1006CC000598009030B1009804280DD000980828A7
:1006DC0014D057E040F20801C1F2000142F2004090
:1006EC00C0F2F400086056E040F20801C1F20001CB
:1006FC0047F64000C0F27D1008604CE043F6040061
:10070C00C4F202000168C1F380510291006800F04C
:10071C003F000190029880B1019947F64000C0F269
:10072C007D10B0FBF1F043F60401C4F2020109683C
:10073C00C1F38811484304900FE0019942F2004044
:10074C00C0F2F400B0FBF1F043F60401C4F2020174
:10075C000968C1F388114843049043F60400C4F2BD
:10076C000200006800F44031022000EBD13003900D
:10077C0004980399B0FBF1F040F20801C1F20001BA
:10078C00086008E040F20801C1F2000142F20040AA
:10079C00C0F2F400086043F60800C4F202000068DE
:1007AC00C0B2010940F65820C0F60000405C05902C
:1007BC00059A40F20801C1F200010868D0400860B7
:0407CC0006B07047BC
:1007D00081B08DF803008DF802109DF803009DF89C
:1007E0000210084445F21041C4F20001086045F2CD
:1007F0001440C4F2000000688007002800D4F6E727
:1008000045F21440C4F20000006845F21840C4F2FA
:080810000000006801B0704710
:1008180040F20000C1F2000000880B28C0F293806B
:1008280040F20001C1F200010020088041F21000EE
:10083800C4F202000068400500281BD440F20700FB
:10084800C1F20000007803280DDC40F20701C1F274
:10085800000108780130087040F20601C1F2000179
:100868000020087005E040F20601C1F200010120F5
:1008780008700AE040F20601C1F200010020087089
:1008880040F20701C1F20001087041F21000C4F201
:1008980002000068000500281BD440F20500C1F2E0
:1008A8000000007803280DDC40F20501C1F20001C8
:1008B80008780130087040F20401C1F200010020FC
:1008C800087005E040F20401C1F20001012008703F
:1008D8000AE040F20401C1F200010020087040F271
:1008E8000501C1F20001087041F21000C4F20200D3
:1008F8000068C00400281BD440F20300C1F20000C5
:10090800007803280DDC40F20301C1F200010878E9
:100918000130087040F20201C1F2000100200870A5
:1009280005E040F20201C1F20001012008700AE06E
:1009380040F20201C1F200010020087040F20301F8
:08094800C1F2000108707047C4
:1009500040F20001C1F200010888013008807047B0
:1009600081B043F60001C4F20201086840F480300F
:10097000086043F60000C4F202000068800300280B
:1009800000D4F6E743F60001C4F20201086820F043
:100990008070086043F60402C4F2020200921068FC
:1009A00040F480001060106820F03F001060106874
:1009B00040F019001060106847F6C073984310604B
:1009C000106840F428501060106820F44030106027
:1009D00043F60802C4F20202106840F4805010602E
:1009E000086840F08070086043F60000C4F202001E
:1009F00000688001002800D4F6E743F60041C4F205
:100A00000201086840F203721043086043F60801CF
:100A1000C4F20201086820F003000860086840F092
:100A20000200086043F60800C4F20200006800F00B
:0C0A30000C00082800D0F5E701B070476A
:100A3C00FFF78BFC4EF68850CEF20000016851F4A3
:080A4C0070010160FFF700FCDE
:040A5400AD060008E3
:100A58000000000000000000010203040607080966
:100A6800754605480549884205D00268043003B434
:100A7800904703BCF7E72847540A0008580A0008BB
:100A8800B90A00080000001008000000CB0A00089E
:100A980008000010AC0A00080C000000690A0008F1
:040AA8005F020008E1
:0C0AAC000024F400010203040506070802
:100AB800206861680834002200E042540139FCD5FE
:020AC800704775
:100ACA0020686168A2680C3401E08B5C8354013AA7
:040ADA00FBD5704791
:0400000508000A3DA8
:00000001FF
