:020000040800F2
:1000000000000220D90500085F0200089D010008D9
:100010006102000863020008650200080000000099
:10002000000000000000000000000000670200085F
:1000300069020008000000006B0200086D02000861
:100040006F020008710200087302000875020008C0
:1000500077020008790200087B0200087D02000890
:100060007F02000881020008830200088502000860
:1000700087020008890200088B0200088D02000830
:100080008F02000891020008930200089502000800
:1000900097020008990200089B0200089D020008D0
:1000A0009F020008A1020008A3020008A5020008A0
:1000B000A7020008A9020008AB020008AD02000870
:1000C000AF020008B1020008B3020008B502000840
:1000D000B7020008B9020008BB020008BD02000810
:1000E000BF020008C1020008C3020008C5020008E0
:1000F000C7020008C9020008CB020008CD020008B0
:10010000CF020008D1020008D3020008D50200087F
:10011000D7020008D9020008DB020008DD0200084F
:10012000DF020008E1020008E3020008E50200081F
:10013000E7020008E9020008EB020008ED020008EF
:10014000EF020008F1020008F3020008F5020008BF
:10015000F7020008F9020008FB020008FD0200088F
:10016000FF0200080103000803030008050300085C
:1001700007030008090300080B0300080000000043
:080180000D0300080F03000845
:10018800034C206804348047FBE700F04FF9FEE792
:040198002406000831
:10019C0008490A68002AFED41EF0040F0CBFEFF3C6
:1001AC000880EFF3098042F000420A608169023155
:0801BC00816170472CED00E0A9
:1001C4004EF68851CEF20001086840F470000860D1
:0201D400704772
:1001D60043F63001C4F20201086840F010000860DE
:1001E60041F20C01C4F20201086840F48010086074
:1001F600086840F480000860086840F08070086075
:1002060041F20001C4F20201086840F08060086013
:10021600086840F080500860086840F08040086038
:0202260070471F
:1002280043F64401C4F20201086840F00100086086
:100238002821C4F20101532008602C21C4F20101D5
:1002480040F2E73008600021C4F20101086840F07C
:0602580001000860704780
:02025E00FEE7B9
:02026000FEE7B7
:02026200FEE7B5
:02026400FEE7B3
:02026600FEE7B1
:02026800FEE7AF
:02026A00FEE7AD
:02026C00FEE7AB
:02026E00FEE7A9
:02027000FEE7A7
:02027200FEE7A5
:02027400FEE7A3
:02027600FEE7A1
:02027800FEE79F
:02027A00FEE79D
:02027C00FEE79B
:02027E00FEE799
:02028000FEE797
:02028200FEE795
:02028400FEE793
:02028600FEE791
:02028800FEE78F
:02028A00FEE78D
:02028C00FEE78B
:02028E00FEE789
:02029000FEE787
:02029200FEE785
:02029400FEE783
:02029600FEE781
:02029800FEE77F
:02029A00FEE77D
:02029C00FEE77B
:02029E00FEE779
:0202A000FEE777
:0202A200FEE775
:0202A400FEE773
:0202A600FEE771
:0202A800FEE76F
:0202AA00FEE76D
:0202AC00FEE76B
:0202AE00FEE769
:0202B000FEE767
:0202B200FEE765
:0202B400FEE763
:0202B600FEE761
:0202B800FEE75F
:0202BA00FEE75D
:0202BC00FEE75B
:0202BE00FEE759
:0202C000FEE757
:0202C200FEE755
:0202C400FEE753
:0202C600FEE751
:0202C800FEE74F
:0202CA00FEE74D
:0202CC00FEE74B
:0202CE00FEE749
:0202D000FEE747
:0202D200FEE745
:0202D400FEE743
:0202D600FEE741
:0202D800FEE73F
:0202DA00FEE73D
:0202DC00FEE73B
:0202DE00FEE739
:0202E000FEE737
:0202E200FEE735
:0202E400FEE733
:0202E600FEE731
:0202E800FEE72F
:0202EA00FEE72D
:0202EC00FEE72B
:0202EE00FEE729
:0202F000FEE727
:0202F200FEE725
:0202F400FEE723
:0202F600FEE721
:0202F800FEE71F
:0202FA00FEE71D
:0202FC00FEE71B
:0202FE00FEE719
:02030000FEE716
:02030200FEE714
:02030400FEE712
:02030600FEE710
:02030800FEE70E
:02030A00FEE70C
:02030C00FEE70A
:02030E00FEE708
:1003100086B0002105910491022003900291019082
:1003200043F60800C4F20200006800F00C000590DB
:100330000598009030B1009804280DD00098082846
:1003400014D057E040F20001C1F2000142F2004037
:10035000C0F2F400086056E040F20001C1F2000172
:1003600047F64000C0F27D1008604CE043F6040000
:10037000C4F202000168C1F380510291006800F0EC
:100380003F000190029880B1019947F64000C0F209
:100390007D10B0FBF1F043F60401C4F202010968DC
:1003A000C1F38811484304900FE0019942F20040E4
:1003B000C0F2F400B0FBF1F043F60401C4F2020114
:1003C0000968C1F388114843049043F60400C4F25D
:1003D0000200006800F44031022000EBD1300390AD
:1003E00004980399B0FBF1F040F20001C1F2000162
:1003F000086008E040F20001C1F2000142F2004052
:10040000C0F2F400086043F60800C4F2020000687D
:10041000C0B2010940F2F450C0F60000405C059003
:10042000059A40F20001C1F200010868D04008605E
:0404300006B070475B
:1004340080B588B00020019007900690ADF81600B2
:10044400ADF81400ADF81200ADF81000ADF80E00D0
:10045400ADF80C00ADF80A0000F04EF8FFF7B9FE55
:10046400FFF7E0FE41F21801C4F20201086840F40B
:1004740000500860086840F480400860086840F450
:10048400004008601020C4F201000068C007F0B109
:100494001021C4F20101086820F001000860BDF8D1
:1004A4001600B0F57A7F05DABDF816000130ADF814
:1004B40016000CE00020ADF81600BDF80E0018B1CF
:1004C4000020ADF80E0002E00120ADF80E00BDF8EA
:1004D4000E0040B141F21801C4F20201086840F074
:1004E4000050086007E041F21801C4F202010868F4
:0804F40040F400500860C5E768
:1004FC0081B043F60001C4F20201086840F4803078
:10050C00086043F60000C4F2020000688003002873
:10051C0000D4F6E743F60001C4F20201086820F0AB
:10052C008070086043F60402C4F202020092106864
:10053C0040F480001060106820F03F0010601068DC
:10054C0040F019001060106847F6C07398431060B3
:10055C00106840F428501060106820F4403010608F
:10056C0043F60802C4F20202106840F48050106096
:10057C00086840F08070086043F60000C4F2020086
:10058C0000688001002800D4F6E743F60041C4F26D
:10059C000201086840F203721043086043F6080138
:1005AC00C4F20201086820F003000860086840F0FB
:1005BC000200086043F60800C4F20200006800F074
:0C05CC000C00082800D0F5E701B07047D3
:1005D800FFF7F4FD4EF68850CEF20000016851F4A2
:0805E80070010160FFF7CCFD7A
:0405F00011030008EB
:1005F40000000000000000000102030406070809CF
:10060400754605480549884205D00268043003B49C
:10061400904703BCF7E72847F0050008F4050008F5
:1006240041060008000000103C0600080400000019
:0806340005060008930100080F
:04063C000024F400A2
:1006400020686168A2680C3401E08B5C8354013A35
:04065000FBD570471F
:04000005080005D911
:00000001FF
