:020000040800F2
:1000000000000220BD0700086B0300089D010008E6
:100010006D0300086F030008710300080000000072
:100020000000000000000000000000007303000852
:10003000750300080000000077030008790300083A
:100040007B0300087D0300087F030008810300088C
:10005000830300088503000887030008890300085C
:100060008B0300088D0300088F030008910300082C
:1000700093030008950300089703000899030008FC
:100080009B0300089D0300089F030008A1030008CC
:10009000A3030008A5030008A7030008A90300089C
:1000A000AB030008AD030008AF030008B10300086C
:1000B000B3030008B5030008B7030008B90300083C
:1000C000BB030008BD030008BF030008C10300080C
:1000D000C3030008C5030008C7030008C9030008DC
:1000E000CB030008CD030008CF030008D1030008AC
:1000F000D3030008D5030008D7030008D90300087C
:10010000DB030008DD030008DF030008E10300084B
:10011000E3030008E5030008E7030008E90300081B
:10012000EB030008ED030008EF030008F1030008EB
:10013000F3030008F5030008F7030008F9030008BB
:10014000FB030008FD030008FF030008010400088A
:100150000304000805040008070400080904000857
:100160000B0400080D0400080F0400081104000827
:10017000130400081504000817040008000000001C
:08018000190400081B0400082B
:10018800034C206804348047FBE700F037FAFEE7A9
:04019800080800084B
:10019C0008490A68002AFED41EF0040F0CBFEFF3C6
:1001AC000880EFF3098042F000420A608169023155
:0801BC00816170472CED00E0A9
:1001C4004EF68851CEF20001086840F470000860D1
:0201D400704772
:1001D60043F63001C4F20201086840F010000860DE
:1001E60041F20C01C4F20201086840F48010086074
:1001F600086840F480000860086840F08070086075
:1002060041F20001C4F20201086840F08060086013
:10021600086840F080500860086840F08040086038
:0202260070471F
:1002280043F64001C4F20201086840F40010086077
:1002380043F63001C4F20201086840F00200086089
:1002480040F20041C4F20201086840F4003008603E
:10025800086840F40020086040F20C41C4F2020132
:10026800086820F47020086040F22441C4F20201BA
:10027800086840F004000860086840F04000086022
:1002880045F20041C4F200010020086045F2044232
:10029800C4F20002106840F02A00106045F21C42C7
:1002A800C4F20002106840F4D2701060106820F4A4
:1002B8000040106045F22042C4F20002106840F08D
:1002C8002B00106045F20C42C4F20002106820F4C2
:1002D80000401060086840F001000860086840F4B9
:0602E80080600860704711
:1002EE0045F20041C4F20001086840F480700860D5
:1002FE0045F21440C4F200000068C00700B9F7E7E9
:02030E00704736
:1003100045F20041C4F20001086840F40070086032
:02032000704724
:1003220045F20041C4F20001086840F480600860B0
:02033200704712
:1003340043F64401C4F20201086840F00100086079
:100344002821C4F20101532008602C21C4F20101C8
:1003540040F2E73008600021C4F20101086840F06F
:0603640001000860704773
:02036A00FEE7AC
:02036C00FEE7AA
:02036E00FEE7A8
:02037000FEE7A6
:02037200FEE7A4
:02037400FEE7A2
:02037600FEE7A0
:02037800FEE79E
:02037A00FEE79C
:02037C00FEE79A
:02037E00FEE798
:02038000FEE796
:02038200FEE794
:02038400FEE792
:02038600FEE790
:02038800FEE78E
:02038A00FEE78C
:02038C00FEE78A
:02038E00FEE788
:02039000FEE786
:02039200FEE784
:02039400FEE782
:02039600FEE780
:02039800FEE77E
:02039A00FEE77C
:02039C00FEE77A
:02039E00FEE778
:0203A000FEE776
:0203A200FEE774
:0203A400FEE772
:0203A600FEE770
:0203A800FEE76E
:0203AA00FEE76C
:0203AC00FEE76A
:0203AE00FEE768
:0203B000FEE766
:0203B200FEE764
:0203B400FEE762
:0203B600FEE760
:0203B800FEE75E
:0203BA00FEE75C
:0203BC00FEE75A
:0203BE00FEE758
:0203C000FEE756
:0203C200FEE754
:0203C400FEE752
:0203C600FEE750
:0203C800FEE74E
:0203CA00FEE74C
:0203CC00FEE74A
:0203CE00FEE748
:0203D000FEE746
:0203D200FEE744
:0203D400FEE742
:0203D600FEE740
:0203D800FEE73E
:0203DA00FEE73C
:0203DC00FEE73A
:0203DE00FEE738
:0203E000FEE736
:0203E200FEE734
:0203E400FEE732
:0203E600FEE730
:0203E800FEE72E
:0203EA00FEE72C
:0203EC00FEE72A
:0203EE00FEE728
:0203F000FEE726
:0203F200FEE724
:0203F400FEE722
:0203F600FEE720
:0203F800FEE71E
:0203FA00FEE71C
:0203FC00FEE71A
:0203FE00FEE718
:02040000FEE715
:02040200FEE713
:02040400FEE711
:02040600FEE70F
:02040800FEE70D
:02040A00FEE70B
:02040C00FEE709
:02040E00FEE707
:02041000FEE705
:02041200FEE703
:02041400FEE701
:02041600FEE7FF
:02041800FEE7FD
:02041A00FEE7FB
:10041C0086B0002105910491022003900291019075
:10042C0043F60800C4F20200006800F00C000590CE
:10043C000598009030B1009804280DD00098082839
:10044C0014D057E040F20001C1F2000142F200402A
:10045C00C0F2F400086056E040F20001C1F2000165
:10046C0047F64000C0F27D1008604CE043F60400F3
:10047C00C4F202000168C1F380510291006800F0DF
:10048C003F000190029880B1019947F64000C0F2FC
:10049C007D10B0FBF1F043F60401C4F202010968CF
:1004AC00C1F38811484304900FE0019942F20040D7
:1004BC00C0F2F400B0FBF1F043F60401C4F2020107
:1004CC000968C1F388114843049043F60400C4F250
:1004DC000200006800F44031022000EBD1300390A0
:1004EC0004980399B0FBF1F040F20001C1F2000155
:1004FC00086008E040F20001C1F2000142F2004045
:10050C00C0F2F400086043F60800C4F20200006870
:10051C00C0B2010940F2D870C0F60000405C0590F2
:10052C00059A40F20001C1F200010868D040086051
:04053C0006B070474E
:1005400080B584B08DF80F000291ADF8062045F219
:100550001840C4F2000000688007002800D5F6E7C4
:10056000FFF7DFFEFFF7C3FE45F21041C4F20001C2
:10057000A020086045F21440C4F200000068800723
:10058000002800D4F6E745F21440C4F200000068E9
:1005900045F21840C4F2000000689DF80F0045F2D3
:1005A0001041C4F20001086045F21440C4F200009A
:1005B00000680006002800D4F6E70020ADF804002B
:1005C000BDF80400BDF80610884217DA0298BDF89D
:1005D0000410405C45F21041C4F20001086045F28D
:1005E0001440C4F2000000680006002800D4F6E7BA
:1005F000BDF804000130ADF80400E1E7FFF788FE24
:0406000004B080BD05
:1006040080B588B00020019007900690ADF81600E0
:10061400ADF81400ADF81200ADF81000ADF80E00FE
:10062400ADF80C00ADF80A0000F058F8FFF7D1FD62
:10063400FFF77EFEFFF7F6FD41F21801C4F2020156
:10064400086840F400500860086840F4804008607E
:10065400086840F40040086040F20401C1F200015F
:1006640008200422FFF76AFF1020C4F2010000688A
:10067400C007F0B11021C4F20101086820F00100A4
:100684000860BDF81600B0F57A7F05DABDF81600EB
:100694000130ADF816000CE00020ADF81600BDF8EE
:1006A4000E0018B10020ADF80E0002E00120ADF8F4
:1006B4000E00BDF80E0040B141F21801C4F202016F
:1006C400086840F00050086007E041F21801C4F2E5
:0C06D4000201086840F400500860C5E70F
:1006E00081B043F60001C4F20201086840F4803092
:1006F000086043F60000C4F202000068800300288E
:1007000000D4F6E743F60001C4F20201086820F0C5
:100710008070086043F60402C4F20202009210687E
:1007200040F480001060106820F03F0010601068F6
:1007300040F019001060106847F6C07398431060CD
:10074000106840F428501060106820F440301060A9
:1007500043F60802C4F20202106840F480501060B0
:10076000086840F08070086043F60000C4F20200A0
:1007700000688001002800D4F6E743F60041C4F287
:100780000201086840F203721043086043F6080152
:10079000C4F20201086820F003000860086840F015
:1007A0000200086043F60800C4F20200006800F08E
:0C07B0000C00082800D0F5E701B07047ED
:1007BC00FFF702FD4EF68850CEF20000016851F4AE
:0807CC0070010160FFF7DAFC87
:0407D4001D040008F8
:1007D80000000000000000000102030406070809E9
:1007E800754605480549884205D00268043003B4B7
:1007F800904703BCF7E72847D4070008D807000844
:100808002D08000800000010200800080C00000057
:08081800E90700089301000844
:0C0820000024F400010203040506070890
:10082C0020686168A2680C3401E08B5C8354013A47
:04083C00FBD5704731
:04000005080007BD2B
:00000001FF
