:020000040800F2
:1000000000000220170C000853060008E90200084F
:1000100055060008570600085906000800000000B1
:100020000000000000000000000000005B06000867
:100030005D060008000000005F0600082B0B0008AA
:1000400061060008630600086506000867060008E8
:10005000690600086B0600086D0600086F060008B8
:100060007106000873060008750600087706000888
:10007000790600087B0600087D0600087F06000858
:100080008106000883060008850600088706000828
:10009000890600088B0600088D0600088F060008F8
:1000A00091060008930600089506000897060008C8
:1000B000990600089B0600089D0600089F06000898
:1000C000A1060008A3060008A5060008A706000868
:1000D000A9060008AB060008AD060008AF06000838
:1000E000B1060008B3060008B5060008B706000808
:1000F000B9060008BB060008BD060008BF060008D8
:10010000C1060008C3060008C5060008C7060008A7
:10011000C9060008CB060008CD060008CF06000877
:10012000D1060008D3060008D5060008D706000847
:10013000D9060008DB060008DD060008DF06000817
:10014000E1060008E3060008E5060008E7060008E7
:10015000E9060008EB060008ED060008EF060008B7
:10016000F1060008F3060008F5060008F706000887
:10017000F9060008FB060008FD0600080000000064
:08018000FF060008010700085A
:1001880080B584B0002003908DF80B008DF80A002C
:100198008DF8090000F0CDFC00F0BFF800F0E6F89B
:1001A80049F24000C0F2020000F009FA41F21801D9
:1001B800C4F20201086840F400500860086840F47E
:1001C80080400860086840F400400860082000F09B
:1001D800B1F900F0B2FB00F04CFC40F21100C1F2A2
:1001E8000000007818B101208DF80B0016E040F2ED
:1001F8001500C1F20000007818B103208DF80B003B
:100208000CE040F21300C1F20000007818B102209F
:100218008DF80B0002E000208DF80B009DF80B0014
:1002280001460191032841D80199DFE801F0020352
:100238002D163BE09DF80A0040F21C01C1F20001B6
:10024800042200F02AF940F21001C1F20001012055
:10025800087000208DF80B0028E09DF8090003289D
:1002680005DC9DF8090001308DF8090002E0002046
:100278008DF8090040F21401C1F200010120087054
:1002880000208DF80B0011E09DF80A0040F20201F1
:10029800C1F20001042200F0E6FA40F21201C1F2B4
:1002A80000010120087000208DF80B009DF809005E
:1002B80008308DF80A009DF809100720884340038C
:0C02C80041F21401C4F20201086082E758
:1002D400034C206804348047FBE7FFF753FFFEE735
:0402E400640C00089E
:1002E80008490A68002AFED41EF0040F0CBFEFF379
:1002F8000880EFF3098042F000420A608169023108
:08030800816170472CED00E05B
:100310004EF68851CEF20001086840F47000086083
:02032000704724
:1003220043F63001C4F20201086840F01000086090
:1003320041F20C01C4F20201086840F48010086026
:10034200086840F480000860086840F08070086027
:1003520041F20001C4F20201086840F080600860C6
:10036200086840F080500860086840F080400860EB
:020372007047D2
:1003740043F64001C4F20201086840F4001008602A
:1003840043F63001C4F20201086840F0020008603C
:1003940040F20041C4F20201086840F400300860F1
:1003A400086840F40020086040F20441C4F20201ED
:1003B400086840F44070086040F20C41C4F2020145
:1003C400086840F4A020086040F22441C4F202010D
:1003D400086840F004000860086840F040000860C5
:1003E40045F20041C4F200010020086045F20442D5
:1003F400C4F20002106840F02A00106045F21C426A
:10040400C4F20002106840F0D2001060106820F4BA
:100414000040106045F22042C4F20002106840F02F
:100424002B00106045F20842C4F20002106820F468
:1004340000401060086840F001000860086840F45B
:06044400806008607047B3
:10044A0045F20041C4F20001086840F48070086077
:10045A0045F21440C4F200000068C00700B9F7E78B
:02046A007047D9
:10046C0045F20041C4F20001086840F400700860D5
:02047C007047C7
:10047E0045F20041C4F20001086840F48060086053
:02048E007047B5
:1004900045F20041C4F20001086820F48060086061
:0204A0007047A3
:1004A20080B584B08DF80F000291ADF80620FFF7F9
:1004B200E5FF45F21840C4F20000006880070028FA
:1004C20000D5F6E7FFF7C0FFA020002100F0AAF94F
:1004D2009DF80F0045F21041C4F20001086045F298
:1004E2001440C4F2000000680006002800D4F6E7B9
:1004F2000020ADF80400BDF80400BDF806108842E3
:1005020017DA0298BDF80410405C45F21041C4F2BB
:100512000001086045F21440C4F2000000680006C1
:10052200002800D4F6E7BDF804000130ADF804005D
:0A053200E1E7FFF79AFF04B080BD77
:10053C0080B582B08DF80700FFF79BFF45F218409D
:10054C00C4F2000000688007002800D5F6E7FFF72A
:10055C0076FFA020002100F060F99DF8070045F21D
:10056C001041C4F20001086045F21440C4F20000CE
:10057C0000680006002800D4F6E70020ADF804005F
:10058C00BDF80400062814DC45F21041C4F2000149
:10059C00FF20086045F21440C4F200000068000619
:1005AC00002800D4F6E7BDF804000130ADF80400D3
:0A05BC00E6E7FFF755FF02B080BD2F
:1005C60080B582B0009000980138B0F1807F02D3E8
:1005D6000120019018E0009801384EF21401CEF285
:1005E600000108604FF0FF300F2100F010F84EF2C6
:1005F6001801CEF20001002008604EF21002CEF281
:0E0606000002072111600190019802B080BD32
:1006140082B08DF8070000919DF90700002809D4E5
:10062400009800019DF907104EF20042CEF200023C
:1006340088540AE0009800019DF8071001F00F01AA
:0E0644004EF61452CEF20002885402B07047F7
:02065200FEE7C1
:02065400FEE7BF
:02065600FEE7BD
:02065800FEE7BB
:02065A00FEE7B9
:02065C00FEE7B7
:02065E00FEE7B5
:02066000FEE7B3
:02066200FEE7B1
:02066400FEE7AF
:02066600FEE7AD
:02066800FEE7AB
:02066A00FEE7A9
:02066C00FEE7A7
:02066E00FEE7A5
:02067000FEE7A3
:02067200FEE7A1
:02067400FEE79F
:02067600FEE79D
:02067800FEE79B
:02067A00FEE799
:02067C00FEE797
:02067E00FEE795
:02068000FEE793
:02068200FEE791
:02068400FEE78F
:02068600FEE78D
:02068800FEE78B
:02068A00FEE789
:02068C00FEE787
:02068E00FEE785
:02069000FEE783
:02069200FEE781
:02069400FEE77F
:02069600FEE77D
:02069800FEE77B
:02069A00FEE779
:02069C00FEE777
:02069E00FEE775
:0206A000FEE773
:0206A200FEE771
:0206A400FEE76F
:0206A600FEE76D
:0206A800FEE76B
:0206AA00FEE769
:0206AC00FEE767
:0206AE00FEE765
:0206B000FEE763
:0206B200FEE761
:0206B400FEE75F
:0206B600FEE75D
:0206B800FEE75B
:0206BA00FEE759
:0206BC00FEE757
:0206BE00FEE755
:0206C000FEE753
:0206C200FEE751
:0206C400FEE74F
:0206C600FEE74D
:0206C800FEE74B
:0206CA00FEE749
:0206CC00FEE747
:0206CE00FEE745
:0206D000FEE743
:0206D200FEE741
:0206D400FEE73F
:0206D600FEE73D
:0206D800FEE73B
:0206DA00FEE739
:0206DC00FEE737
:0206DE00FEE735
:0206E000FEE733
:0206E200FEE731
:0206E400FEE72F
:0206E600FEE72D
:0206E800FEE72B
:0206EA00FEE729
:0206EC00FEE727
:0206EE00FEE725
:0206F000FEE723
:0206F200FEE721
:0206F400FEE71F
:0206F600FEE71D
:0206F800FEE71B
:0206FA00FEE719
:0206FC00FEE717
:0206FE00FEE715
:02070000FEE712
:1007020086B000210591049102200390029101908C
:1007120043F60800C4F20200006800F00C000590E5
:100722000598009030B1009804280DD00098082850
:1007320014D057E040F21801C1F2000142F2004029
:10074200C0F2F400086056E040F21801C1F2000164
:1007520047F64000C0F27D1008604CE043F604000A
:10076200C4F202000168C1F380510291006800F0F6
:100772003F000190029880B1019947F64000C0F213
:100782007D10B0FBF1F043F60401C4F202010968E6
:10079200C1F38811484304900FE0019942F20040EE
:1007A200C0F2F400B0FBF1F043F60401C4F202011E
:1007B2000968C1F388114843049043F60400C4F267
:1007C2000200006800F44031022000EBD1300390B7
:1007D20004980399B0FBF1F040F21801C1F2000154
:1007E200086008E040F21801C1F2000142F2004044
:1007F200C0F2F400086043F60800C4F20200006888
:10080200C0B2010940F63440C0F60000405C0590D9
:10081200059A40F21801C1F200010868D040086050
:0408220006B0704765
:1008260081B08DF803008DF802109DF803009DF845
:100836000210084445F21041C4F20001086045F276
:100846001440C4F2000000688007002800D4F6E7D0
:1008560045F21440C4F20000006845F21840C4F2A4
:080866000000006801B07047BA
:10086E0080B584B08DF80F000291ADF8062045F2E8
:10087E001840C4F2000000688007002800D5F6E793
:10088E00FFF7F6FDFFF7DAFDA0200021FFF7C4FF0A
:10089E009DF80F0045F21041C4F20001086045F2C8
:1008AE001440C4F2000000680006002800D4F6E7E9
:1008BE00FFF7C4FDA0200121FFF7AEFF0020ADF829
:1008CE000400BDF80400BDF806100139884217DA9D
:1008DE0045F21440C4F2000000684006002800D41F
:1008EE00F6E745F21040C4F2000000680299BDF828
:1008FE0004208854BDF804000130ADF80400E0E790
:10090E00FFF7BFFD45F21440C4F200000068400638
:10091E00002800D4F6E745F21040C4F2000000684B
:10092E00029ABDF80610114401F8010CFFF797FD6D
:04093E0004B080BDC4
:1009420040F20000C1F2000000880B28C0F2938040
:1009520040F20001C1F200010020088041F21000C3
:10096200C4F202000068400500281BD440F20F00C8
:10097200C1F20000007803280DDC40F20F01C1F241
:10098200000108780130087040F20E01C1F2000146
:100992000020087005E040F20E01C1F200010120C2
:1009A20008700AE040F20E01C1F200010020087056
:1009B20040F20F01C1F20001087041F21000C4F2CE
:1009C20002000068000500281BD440F20D00C1F2AD
:1009D2000000007803280DDC40F20D01C1F2000195
:1009E20008780130087040F20C01C1F200010020C9
:1009F200087005E040F20C01C1F20001012008700C
:100A02000AE040F20C01C1F200010020087040F23D
:100A12000D01C1F20001087041F21000C4F202009F
:100A22000068C00400281BD440F20B00C1F2000091
:100A3200007803280DDC40F20B01C1F200010878B6
:100A42000130087040F20A01C1F200010020087072
:100A520005E040F20A01C1F20001012008700AE03B
:100A620040F20A01C1F200010020087040F20B01BD
:080A7200C1F200010870704799
:100A7A0040F20E00C1F20000007830B940F21001D5
:100A8A00C1F20001002008700FE040F20E00C1F22E
:100A9A000000007840F21001C1F200010978884391
:100AAA0040F21101C1F20001087040F20C00C1F2DB
:100ABA000000007830B940F21401C1F200010020B0
:100ACA0008700FE040F20C00C1F20000007840F21A
:100ADA001401C1F200010978884340F21501C1F2FC
:100AEA000001087040F20A00C1F20000007830B933
:100AFA0040F21201C1F20001002008700FE040F23A
:100B0A000A00C1F20000007840F21201C1F20001AD
:100B1A000978884340F21301C1F200010870704756
:100B2A0040F20001C1F200010888013008807047D4
:100B3A0081B043F60001C4F20201086840F4803033
:100B4A00086043F60000C4F202000068800300282F
:100B5A0000D4F6E743F60001C4F20201086820F067
:100B6A008070086043F60402C4F202020092106820
:100B7A0040F480001060106820F03F001060106898
:100B8A0040F019001060106847F6C073984310606F
:100B9A00106840F428501060106820F4403010604B
:100BAA0043F60802C4F20202106840F48050106052
:100BBA00086840F08070086043F60000C4F2020042
:100BCA0000688001002800D4F6E743F60041C4F229
:100BDA000201086840F203721043086043F60801F4
:100BEA00C4F20201086820F003000860086840F0B7
:100BFA000200086043F60800C4F20200006800F030
:0C0C0A000C00082800D0F5E701B070478E
:100C1600FFF77BFB4EF68850CEF20000016851F4D8
:080C260070010160FFF753FBB0
:040C300003070008AE
:100C34000000000000000000010203040607080988
:100C4400754605480549884205D00268043003B456
:100C5400904703BCF7E72847300C0008340C000821
:100C6400950C00080000001016000000A70C0008F6
:100C740018000010880C00080C000000450C000847
:040C8400DF02000883
:0C0C88000024F400010203040506070824
:100C9400206861680834002200E042540139FCD520
:020CA400704797
:100CA60020686168A2680C3401E08B5C8354013AC9
:040CB600FBD57047B3
:0400000508000C17CC
:00000001FF
