:020000040800F2
:1000000000000220EB070008150400089D0100080D
:1000100017040008190400081B0400080000000071
:100020000000000000000000000000001D040008A7
:100030001F04000800000000210400082304000839
:100040002504000827040008290400082B040008E0
:100050002D0400082F0400083104000833040008B0
:100060003504000837040008390400083B04000880
:100070003D0400083F040008410400084304000850
:100080004504000847040008490400084B04000820
:100090004D0400084F0400085104000853040008F0
:1000A0005504000857040008590400085B040008C0
:1000B0005D0400085F040008610400086304000890
:1000C0006504000867040008690400086B04000860
:1000D0006D0400086F040008710400087304000830
:1000E0007504000877040008790400087B04000800
:1000F0007D0400087F0400088104000883040008D0
:100100008504000887040008890400088B0400089F
:100110008D0400088F04000891040008930400086F
:100120009504000897040008990400089B0400083F
:100130009D0400089F040008A1040008A30400080F
:10014000A5040008A7040008A9040008AB040008DF
:10015000AD040008AF040008B1040008B3040008AF
:10016000B5040008B7040008B9040008BB0400087F
:10017000BD040008BF040008C1040008000000001E
:08018000C3040008C5040008D7
:10018800034C206804348047FBE700F04EFAFEE792
:04019800380800081B
:10019C0008490A68002AFED41EF0040F0CBFEFF3C6
:1001AC000880EFF3098042F000420A608169023155
:0801BC00816170472CED00E0A9
:1001C4004EF68851CEF20001086840F470000860D1
:0201D400704772
:1001D60043F63001C4F20201086840F010000860DE
:1001E60041F20C01C4F20201086840F48010086074
:1001F600086840F480000860086840F08070086075
:1002060041F20001C4F20201086840F08060086013
:10021600086840F080500860086840F08040086038
:0202260070471F
:1002280043F64001C4F20201086840F40010086077
:1002380043F63001C4F20201086840F00200086089
:1002480040F20041C4F20201086840F4003008603E
:10025800086840F40020086040F20441C4F202013A
:10026800086840F44070086040F20C41C4F2020192
:10027800086840F4A020086040F22441C4F202015A
:10028800086840F004000860086840F04000086012
:1002980045F20041C4F200010020086045F2044222
:1002A800C4F20002106840F02A00106045F21C42B7
:1002B800C4F20002106840F0D2001060106820F408
:1002C8000040106045F22042C4F20002106840F07D
:1002D8002B00106045F20C42C4F20002106820F4B2
:1002E80000401060086840F001000860086840F4A9
:0602F80080600860704701
:1002FE0045F20041C4F20001086840F480700860C5
:10030E0045F21440C4F200000068C00700B9F7E7D8
:02031E00704726
:1003200045F20041C4F20001086840F40070086022
:02033000704714
:1003320045F20041C4F20001086840F480600860A0
:02034200704702
:1003440080B584B08DF80F000291ADF80620FFF758
:10035400EEFF45F21840C4F2000000688007002850
:1003640000D5F6E7FFF7C9FFA020002100F03BF914
:100374009DF80F0045F21041C4F20001086045F2F7
:100384001440C4F2000000680006002800D4F6E718
:100394000020ADF80400BDF80400BDF80610884242
:1003A40017DA0298BDF80410405C45F21041C4F21B
:1003B4000001086045F21440C4F200000068000621
:1003C400002800D4F6E7BDF804000130ADF80400BD
:0A03D400E1E7FFF7A3FF04B080BDCE
:1003DE0043F64401C4F20201086840F001000860CF
:1003EE002821C4F20101532008602C21C4F201011E
:1003FE0040F2E73008600021C4F20101086840F0C5
:06040E00010008607047C8
:02041400FEE701
:02041600FEE7FF
:02041800FEE7FD
:02041A00FEE7FB
:02041C00FEE7F9
:02041E00FEE7F7
:02042000FEE7F5
:02042200FEE7F3
:02042400FEE7F1
:02042600FEE7EF
:02042800FEE7ED
:02042A00FEE7EB
:02042C00FEE7E9
:02042E00FEE7E7
:02043000FEE7E5
:02043200FEE7E3
:02043400FEE7E1
:02043600FEE7DF
:02043800FEE7DD
:02043A00FEE7DB
:02043C00FEE7D9
:02043E00FEE7D7
:02044000FEE7D5
:02044200FEE7D3
:02044400FEE7D1
:02044600FEE7CF
:02044800FEE7CD
:02044A00FEE7CB
:02044C00FEE7C9
:02044E00FEE7C7
:02045000FEE7C5
:02045200FEE7C3
:02045400FEE7C1
:02045600FEE7BF
:02045800FEE7BD
:02045A00FEE7BB
:02045C00FEE7B9
:02045E00FEE7B7
:02046000FEE7B5
:02046200FEE7B3
:02046400FEE7B1
:02046600FEE7AF
:02046800FEE7AD
:02046A00FEE7AB
:02046C00FEE7A9
:02046E00FEE7A7
:02047000FEE7A5
:02047200FEE7A3
:02047400FEE7A1
:02047600FEE79F
:02047800FEE79D
:02047A00FEE79B
:02047C00FEE799
:02047E00FEE797
:02048000FEE795
:02048200FEE793
:02048400FEE791
:02048600FEE78F
:02048800FEE78D
:02048A00FEE78B
:02048C00FEE789
:02048E00FEE787
:02049000FEE785
:02049200FEE783
:02049400FEE781
:02049600FEE77F
:02049800FEE77D
:02049A00FEE77B
:02049C00FEE779
:02049E00FEE777
:0204A000FEE775
:0204A200FEE773
:0204A400FEE771
:0204A600FEE76F
:0204A800FEE76D
:0204AA00FEE76B
:0204AC00FEE769
:0204AE00FEE767
:0204B000FEE765
:0204B200FEE763
:0204B400FEE761
:0204B600FEE75F
:0204B800FEE75D
:0204BA00FEE75B
:0204BC00FEE759
:0204BE00FEE757
:0204C000FEE755
:0204C200FEE753
:0204C400FEE751
:1004C60086B00021059104910220039002910190CB
:1004D60043F60800C4F20200006800F00C00059024
:1004E6000598009030B1009804280DD0009808288F
:1004F60014D057E040F20001C1F2000142F2004080
:10050600C0F2F400086056E040F20001C1F20001BA
:1005160047F64000C0F27D1008604CE043F6040048
:10052600C4F202000168C1F380510291006800F034
:100536003F000190029880B1019947F64000C0F251
:100546007D10B0FBF1F043F60401C4F20201096824
:10055600C1F38811484304900FE0019942F200402C
:10056600C0F2F400B0FBF1F043F60401C4F202015C
:100576000968C1F388114843049043F60400C4F2A5
:100586000200006800F44031022000EBD1300390F5
:1005960004980399B0FBF1F040F20001C1F20001AA
:1005A600086008E040F20001C1F2000142F200409A
:1005B600C0F2F400086043F60800C4F202000068C6
:1005C600C0B2010940F60800C0F60000405C059084
:1005D600059A40F20001C1F200010868D0400860A7
:0405E60006B07047A4
:1005EA0081B08DF803008DF802109DF803009DF884
:1005FA000210084445F21041C4F20001086045F2B5
:10060A001440C4F2000000688007002800D4F6E70E
:10061A0045F21440C4F20000006845F21840C4F2E2
:08062A000000006801B07047F8
:1006320080B588B00020019007900690ADF81600B2
:10064200ADF81400ADF81200ADF81000ADF80E00D0
:10065200ADF80C00ADF80A0000F058F8FFF7BAFD4B
:10066200FFF7BCFEFFF7DFFD41F21801C4F2020101
:10067200086840F400500860086840F48040086050
:10068200086840F40040086040F20401C1F2000131
:1006920008200422FFF755FE1020C4F20100006872
:1006A200C007F0B11021C4F20101086820F0010076
:1006B2000860BDF81600B0F57A7F05DABDF81600BD
:1006C2000130ADF816000CE00020ADF81600BDF8C0
:1006D2000E0018B10020ADF80E0002E00120ADF8C6
:1006E2000E00BDF80E0040B141F21801C4F2020141
:1006F200086840F00050086007E041F21801C4F2B7
:0C0702000201086840F400500860C5E7E0
:10070E0081B043F60001C4F20201086840F4803063
:10071E00086043F60000C4F202000068800300285F
:10072E0000D4F6E743F60001C4F20201086820F097
:10073E008070086043F60402C4F202020092106850
:10074E0040F480001060106820F03F0010601068C8
:10075E0040F019001060106847F6C073984310609F
:10076E00106840F428501060106820F4403010607B
:10077E0043F60802C4F20202106840F48050106082
:10078E00086840F08070086043F60000C4F2020072
:10079E0000688001002800D4F6E743F60041C4F259
:1007AE000201086840F203721043086043F6080124
:1007BE00C4F20201086820F003000860086840F0E7
:1007CE000200086043F60800C4F20200006800F060
:0C07DE000C00082800D0F5E701B07047BF
:1007EA00FFF7EBFC4EF68850CEF20000016851F498
:0807FA0070010160FFF7C3FC70
:04080400C70400081D
:1008080000000000000000000102030406070809B8
:10081800754605480549884205D00268043003B486
:10082800904703BCF7E728470408000808080008B1
:100838005D08000800000010500800080C000000C7
:080848001908000893010008E3
:0C0850000024F400010203040506070860
:10085C0020686168A2680C3401E08B5C8354013A17
:04086C00FBD5704701
:04000005080007EBFD
:00000001FF
